{
  "contractName": "Wrapped1155Factory",
  "abi": [
    {
      "inputs": [],
      "stateMutability": "nonpayable",
      "type": "constructor"
    },
    {
      "anonymous": false,
      "inputs": [
        {
          "indexed": true,
          "internalType": "contract IERC1155",
          "name": "multiToken",
          "type": "address"
        },
        {
          "indexed": true,
          "internalType": "uint256",
          "name": "tokenId",
          "type": "uint256"
        },
        {
          "indexed": true,
          "internalType": "contract Wrapped1155",
          "name": "wrappedToken",
          "type": "address"
        }
      ],
      "name": "Wrapped1155Creation",
      "type": "event"
    },
    {
      "inputs": [],
      "name": "erc20Implementation",
      "outputs": [
        {
          "internalType": "contract Wrapped1155",
          "name": "",
          "type": "address"
        }
      ],
      "stateMutability": "view",
      "type": "function"
    },
    {
      "inputs": [
        {
          "internalType": "bytes4",
          "name": "interfaceId",
          "type": "bytes4"
        }
      ],
      "name": "supportsInterface",
      "outputs": [
        {
          "internalType": "bool",
          "name": "",
          "type": "bool"
        }
      ],
      "stateMutability": "view",
      "type": "function"
    },
    {
      "inputs": [
        {
          "internalType": "address",
          "name": "operator",
          "type": "address"
        },
        {
          "internalType": "address",
          "name": "",
          "type": "address"
        },
        {
          "internalType": "uint256",
          "name": "id",
          "type": "uint256"
        },
        {
          "internalType": "uint256",
          "name": "value",
          "type": "uint256"
        },
        {
          "internalType": "bytes",
          "name": "data",
          "type": "bytes"
        }
      ],
      "name": "onERC1155Received",
      "outputs": [
        {
          "internalType": "bytes4",
          "name": "",
          "type": "bytes4"
        }
      ],
      "stateMutability": "nonpayable",
      "type": "function"
    },
    {
      "inputs": [
        {
          "internalType": "address",
          "name": "operator",
          "type": "address"
        },
        {
          "internalType": "address",
          "name": "",
          "type": "address"
        },
        {
          "internalType": "uint256[]",
          "name": "ids",
          "type": "uint256[]"
        },
        {
          "internalType": "uint256[]",
          "name": "values",
          "type": "uint256[]"
        },
        {
          "internalType": "bytes",
          "name": "data",
          "type": "bytes"
        }
      ],
      "name": "onERC1155BatchReceived",
      "outputs": [
        {
          "internalType": "bytes4",
          "name": "",
          "type": "bytes4"
        }
      ],
      "stateMutability": "nonpayable",
      "type": "function"
    },
    {
      "inputs": [
        {
          "internalType": "contract IERC1155",
          "name": "multiToken",
          "type": "address"
        },
        {
          "internalType": "uint256",
          "name": "tokenId",
          "type": "uint256"
        },
        {
          "internalType": "uint256",
          "name": "amount",
          "type": "uint256"
        },
        {
          "internalType": "address",
          "name": "recipient",
          "type": "address"
        },
        {
          "internalType": "bytes",
          "name": "data",
          "type": "bytes"
        }
      ],
      "name": "unwrap",
      "outputs": [],
      "stateMutability": "nonpayable",
      "type": "function"
    },
    {
      "inputs": [
        {
          "internalType": "contract IERC1155",
          "name": "multiToken",
          "type": "address"
        },
        {
          "internalType": "uint256[]",
          "name": "tokenIds",
          "type": "uint256[]"
        },
        {
          "internalType": "uint256[]",
          "name": "amounts",
          "type": "uint256[]"
        },
        {
          "internalType": "address",
          "name": "recipient",
          "type": "address"
        },
        {
          "internalType": "bytes",
          "name": "data",
          "type": "bytes"
        }
      ],
      "name": "batchUnwrap",
      "outputs": [],
      "stateMutability": "nonpayable",
      "type": "function"
    },
    {
      "inputs": [
        {
          "internalType": "contract IERC1155",
          "name": "multiToken",
          "type": "address"
        },
        {
          "internalType": "uint256",
          "name": "tokenId",
          "type": "uint256"
        }
      ],
      "name": "getWrapped1155DeployBytecode",
      "outputs": [
        {
          "internalType": "bytes",
          "name": "",
          "type": "bytes"
        }
      ],
      "stateMutability": "view",
      "type": "function"
    },
    {
      "inputs": [
        {
          "internalType": "contract IERC1155",
          "name": "multiToken",
          "type": "address"
        },
        {
          "internalType": "uint256",
          "name": "tokenId",
          "type": "uint256"
        }
      ],
      "name": "getWrapped1155",
      "outputs": [
        {
          "internalType": "contract Wrapped1155",
          "name": "",
          "type": "address"
        }
      ],
      "stateMutability": "view",
      "type": "function"
    },
    {
      "inputs": [
        {
          "internalType": "contract IERC1155",
          "name": "multiToken",
          "type": "address"
        },
        {
          "internalType": "uint256",
          "name": "tokenId",
          "type": "uint256"
        }
      ],
      "name": "requireWrapped1155",
      "outputs": [
        {
          "internalType": "contract Wrapped1155",
          "name": "",
          "type": "address"
        }
      ],
      "stateMutability": "nonpayable",
      "type": "function"
    }
  ],
  "bytecode": "0x608060405234801561001057600080fd5b506100276301ffc9a760e01b6100b460201b60201c565b61004663bc197c8160e01b63f23a6e6160e01b186100b460201b60201c565b604051610052906101bc565b604051809103906000f08015801561006e573d6000803e3d6000fd5b50600160006101000a81548173ffffffffffffffffffffffffffffffffffffffff021916908373ffffffffffffffffffffffffffffffffffffffff1602179055506101ca565b63ffffffff60e01b817bffffffffffffffffffffffffffffffffffffffffffffffffffffffff19161415610150576040517f08c379a000000000000000000000000000000000000000000000000000000000815260040180806020018281038252601c8152602001807f4552433136353a20696e76616c696420696e746572666163652069640000000081525060200191505060405180910390fd5b6001600080837bffffffffffffffffffffffffffffffffffffffffffffffffffffffff19167bffffffffffffffffffffffffffffffffffffffffffffffffffffffff1916815260200190815260200160002060006101000a81548160ff02191690831515021790555050565b6119f2806200179683390190565b6115bc80620001da6000396000f3fe608060405234801561001057600080fd5b50600436106100935760003560e01c8063901be04111610066578063901be04114610307578063a7eaa1861461033b578063bc197c811461049e578063d533249a14610634578063f23a6e61146106ac57610093565b806301ffc9a71461009857806307662922146100fb57806352aecb24146101c25780638920e8911461028f575b600080fd5b6100e3600480360360208110156100ae57600080fd5b8101908080357bffffffffffffffffffffffffffffffffffffffffffffffffffffffff191690602001909291905050506107ac565b60405180821515815260200191505060405180910390f35b6101476004803603604081101561011157600080fd5b81019080803573ffffffffffffffffffffffffffffffffffffffff16906020019092919080359060200190929190505050610813565b6040518080602001828103825283818151815260200191508051906020019080838360005b8381101561018757808201518184015260208101905061016c565b50505050905090810190601f1680156101b45780820380516001836020036101000a031916815260200191505b509250505060405180910390f35b61028d600480360360a08110156101d857600080fd5b81019080803573ffffffffffffffffffffffffffffffffffffffff1690602001909291908035906020019092919080359060200190929190803573ffffffffffffffffffffffffffffffffffffffff1690602001909291908035906020019064010000000081111561024957600080fd5b82018360208201111561025b57600080fd5b8035906020019184600183028401116401000000008311171561027d57600080fd5b9091929391929390505050610c80565b005b6102db600480360360408110156102a557600080fd5b81019080803573ffffffffffffffffffffffffffffffffffffffff16906020019092919080359060200190929190505050610dfd565b604051808273ffffffffffffffffffffffffffffffffffffffff16815260200191505060405180910390f35b61030f610e7b565b604051808273ffffffffffffffffffffffffffffffffffffffff16815260200191505060405180910390f35b61049c600480360360a081101561035157600080fd5b81019080803573ffffffffffffffffffffffffffffffffffffffff1690602001909291908035906020019064010000000081111561038e57600080fd5b8201836020820111156103a057600080fd5b803590602001918460208302840111640100000000831117156103c257600080fd5b9091929391929390803590602001906401000000008111156103e357600080fd5b8201836020820111156103f557600080fd5b8035906020019184602083028401116401000000008311171561041757600080fd5b9091929391929390803573ffffffffffffffffffffffffffffffffffffffff1690602001909291908035906020019064010000000081111561045857600080fd5b82018360208201111561046a57600080fd5b8035906020019184600183028401116401000000008311171561048c57600080fd5b9091929391929390505050610ea1565b005b6105ff600480360360a08110156104b457600080fd5b81019080803573ffffffffffffffffffffffffffffffffffffffff169060200190929190803573ffffffffffffffffffffffffffffffffffffffff1690602001909291908035906020019064010000000081111561051157600080fd5b82018360208201111561052357600080fd5b8035906020019184602083028401116401000000008311171561054557600080fd5b90919293919293908035906020019064010000000081111561056657600080fd5b82018360208201111561057857600080fd5b8035906020019184602083028401116401000000008311171561059a57600080fd5b9091929391929390803590602001906401000000008111156105bb57600080fd5b8201836020820111156105cd57600080fd5b803590602001918460018302840111640100000000831117156105ef57600080fd5b909192939192939050505061111c565b60405180827bffffffffffffffffffffffffffffffffffffffffffffffffffffffff1916815260200191505060405180910390f35b6106806004803603604081101561064a57600080fd5b81019080803573ffffffffffffffffffffffffffffffffffffffff16906020019092919080359060200190929190505050611253565b604051808273ffffffffffffffffffffffffffffffffffffffff16815260200191505060405180910390f35b610777600480360360a08110156106c257600080fd5b81019080803573ffffffffffffffffffffffffffffffffffffffff169060200190929190803573ffffffffffffffffffffffffffffffffffffffff16906020019092919080359060200190929190803590602001909291908035906020019064010000000081111561073357600080fd5b82018360208201111561074557600080fd5b8035906020019184600183028401116401000000008311171561076757600080fd5b90919293919293905050506113f1565b60405180827bffffffffffffffffffffffffffffffffffffffffffffffffffffffff1916815260200191505060405180910390f35b6000806000837bffffffffffffffffffffffffffffffffffffffffffffffffffffffff19167bffffffffffffffffffffffffffffffffffffffffffffffffffffffff1916815260200190815260200160002060009054906101000a900460ff169050919050565b6060308383602060066012602c60ab600160009054906101000a900473ffffffffffffffffffffffffffffffffffffffff1660405160200180807f73000000000000000000000000000000000000000000000000000000000000008152506001018a73ffffffffffffffffffffffffffffffffffffffff1660601b8152601401807f3d55000000000000000000000000000000000000000000000000000000000000815250600201807f73000000000000000000000000000000000000000000000000000000000000008152506001018973ffffffffffffffffffffffffffffffffffffffff1660601b8152601401807f6001550000000000000000000000000000000000000000000000000000000000815250600301807f7f00000000000000000000000000000000000000000000000000000000000000815250600101888152602001807f6002550000000000000000000000000000000000000000000000000000000000815250600301807f7f00000000000000000000000000000000000000000000000000000000000000815250600101807f57726170706564204552432d3131353500000000000000000000000000000000815250601001876fffffffffffffffffffffffffffffffff1660801b8152601001807f6006550000000000000000000000000000000000000000000000000000000000815250600301807f7f00000000000000000000000000000000000000000000000000000000000000815250600101807f574d540000000000000000000000000000000000000000000000000000000000815250600301867cffffffffffffffffffffffffffffffffffffffffffffffffffffffffff1660181b8152601d01807f6007550000000000000000000000000000000000000000000000000000000000815250600301807f60000000000000000000000000000000000000000000000000000000000000008152506001018560ff1660f81b8152600101807f6008550000000000000000000000000000000000000000000000000000000000815250600301807f60000000000000000000000000000000000000000000000000000000000000008152506001018460ff1660f81b8152600101807f6040510000000000000000000000000000000000000000000000000000000000815250600301807f8100000000000000000000000000000000000000000000000000000000000000815250600101807f60000000000000000000000000000000000000000000000000000000000000008152506001018360ff1660f81b8152600101807f8239f30000000000000000000000000000000000000000000000000000000000815250600301807f3d3d3d3d363d3d37363d73000000000000000000000000000000000000000000815250600b018273ffffffffffffffffffffffffffffffffffffffff1660601b8152601401807f5af43d3d93803e602a57fd5bf300000000000000000000000000000000000000815250600d019950505050505050505050604051602081830303815290604052905092915050565b610c8a8686610dfd565b73ffffffffffffffffffffffffffffffffffffffff16639dc29fac33866040518363ffffffff1660e01b8152600401808373ffffffffffffffffffffffffffffffffffffffff16815260200182815260200192505050600060405180830381600087803b158015610cfa57600080fd5b505af1158015610d0e573d6000803e3d6000fd5b505050508573ffffffffffffffffffffffffffffffffffffffff1663f242432a3085888887876040518763ffffffff1660e01b8152600401808773ffffffffffffffffffffffffffffffffffffffff1681526020018673ffffffffffffffffffffffffffffffffffffffff168152602001858152602001848152602001806020018281038252848482818152602001925080828437600081840152601f19601f820116905080830192505050975050505050505050600060405180830381600087803b158015610ddd57600080fd5b505af1158015610df1573d6000803e3d6000fd5b50505050505050505050565b600060ff30610483610e0f8686610813565b80519060200120604051602001808560ff1660f81b81526001018473ffffffffffffffffffffffffffffffffffffffff1660601b81526014018381526020018281526020019450505050506040516020818303038152906040528051906020012060001c905092915050565b600160009054906101000a900473ffffffffffffffffffffffffffffffffffffffff1681565b848490508787905014610eff576040517f08c379a000000000000000000000000000000000000000000000000000000000815260040180806020018281038252602b815260200180611538602b913960400191505060405180910390fd5b60005b87879050811015610fd057610f2989898984818110610f1d57fe5b90506020020135610dfd565b73ffffffffffffffffffffffffffffffffffffffff16639dc29fac33888885818110610f5157fe5b905060200201356040518363ffffffff1660e01b8152600401808373ffffffffffffffffffffffffffffffffffffffff16815260200182815260200192505050600060405180830381600087803b158015610fab57600080fd5b505af1158015610fbf573d6000803e3d6000fd5b505050508080600101915050610f02565b508773ffffffffffffffffffffffffffffffffffffffff16632eb2c2d630858a8a8a8a89896040518963ffffffff1660e01b8152600401808973ffffffffffffffffffffffffffffffffffffffff1681526020018873ffffffffffffffffffffffffffffffffffffffff16815260200180602001806020018060200184810384528a8a82818152602001925060200280828437600081840152601f19601f8201169050808301925050508481038352888882818152602001925060200280828437600081840152601f19601f8201169050808301925050508481038252868682818152602001925080828437600081840152601f19601f8201169050808301925050509b505050505050505050505050600060405180830381600087803b1580156110fa57600080fd5b505af115801561110e573d6000803e3d6000fd5b505050505050505050505050565b600080600084849050116111305789611168565b8383602081101561114057600080fd5b81019080803573ffffffffffffffffffffffffffffffffffffffff1690602001909291905050505b905060005b8888905081101561123b57611194338a8a8481811061118857fe5b90506020020135611253565b73ffffffffffffffffffffffffffffffffffffffff166340c10f19838989858181106111bc57fe5b905060200201356040518363ffffffff1660e01b8152600401808373ffffffffffffffffffffffffffffffffffffffff16815260200182815260200192505050600060405180830381600087803b15801561121657600080fd5b505af115801561122a573d6000803e3d6000fd5b50505050808060010191505061116d565b5063bc197c8160e01b91505098975050505050505050565b600060606112618484610813565b9050600060ff306104838480519060200120604051602001808560ff1660f81b81526001018473ffffffffffffffffffffffffffffffffffffffff1660601b81526014018381526020018281526020019450505050506040516020818303038152906040528051906020012060001c90506112f18173ffffffffffffffffffffffffffffffffffffffff166114ec565b6113e65760006104838351602085016000f590508073ffffffffffffffffffffffffffffffffffffffff168273ffffffffffffffffffffffffffffffffffffffff1614611389576040517f08c379a00000000000000000000000000000000000000000000000000000000081526004018080602001828103825260248152602001806115636024913960400191505060405180910390fd5b8173ffffffffffffffffffffffffffffffffffffffff16858773ffffffffffffffffffffffffffffffffffffffff167f5cf3a4006b0dcb221517555192a3e5df5e19783c22ea769c1ef46dd421ae2d3260405160405180910390a4505b809250505092915050565b60008060008484905011611405578761143d565b8383602081101561141557600080fd5b81019080803573ffffffffffffffffffffffffffffffffffffffff1690602001909291905050505b9050600061144b3388611253565b90508073ffffffffffffffffffffffffffffffffffffffff166340c10f1983886040518363ffffffff1660e01b8152600401808373ffffffffffffffffffffffffffffffffffffffff16815260200182815260200192505050600060405180830381600087803b1580156114be57600080fd5b505af11580156114d2573d6000803e3d6000fd5b5050505063f23a6e6160e01b925050509695505050505050565b60008060007fc5d2460186f7233c927e7db2dcc703c0e500b653ca82273b7bfad8045d85a47060001b9050833f915080821415801561152e57506000801b8214155b9250505091905056fe5772617070656431313535466163746f72793a206d69736d61746368656420696e707574206172726179735772617070656431313535466163746f72793a206661696c656420746f206465706c6f79a2646970667358221220afe79dc45c511aa41f4ccd1605bfb150b6a7aabb64eec454d3aa52beb0dc404164736f6c634300060c003360806040523480156200001157600080fd5b506040518060400160405280601f81526020017f57726170706564204552432d3131353520496d706c656d656e746174696f6e008152506040518060400160405280600481526020017f574d542a00000000000000000000000000000000000000000000000000000000815250816006908051906020019062000096929190620000d4565b508060079080519060200190620000af929190620000d4565b506012600860006101000a81548160ff021916908360ff16021790555050506200017a565b828054600181600116156101000203166002900490600052602060002090601f016020900481019282601f106200011757805160ff191683800117855562000148565b8280016001018555821562000148579182015b82811115620001475782518255916020019190600101906200012a565b5b5090506200015791906200015b565b5090565b5b80821115620001765760008160009055506001016200015c565b5090565b611868806200018a6000396000f3fe608060405234801561001057600080fd5b50600436106101005760003560e01c806340c10f1911610097578063a457c2d711610066578063a457c2d7146104dc578063a9059cbb14610540578063c45a0155146105a4578063dd62ed3e146105d857610100565b806340c10f191461036557806370a08231146103b357806395d89b411461040b5780639dc29fac1461048e57610100565b80631904e5c9116100d35780631904e5c91461022857806323b872dd1461025c578063313ce567146102e0578063395093511461030157610100565b806306fdde0314610105578063095ea7b31461018857806317d70f7c146101ec57806318160ddd1461020a575b600080fd5b61010d610650565b6040518080602001828103825283818151815260200191508051906020019080838360005b8381101561014d578082015181840152602081019050610132565b50505050905090810190601f16801561017a5780820380516001836020036101000a031916815260200191505b509250505060405180910390f35b6101d46004803603604081101561019e57600080fd5b81019080803573ffffffffffffffffffffffffffffffffffffffff169060200190929190803590602001909291905050506106f2565b60405180821515815260200191505060405180910390f35b6101f4610710565b6040518082815260200191505060405180910390f35b610212610716565b6040518082815260200191505060405180910390f35b610230610720565b604051808273ffffffffffffffffffffffffffffffffffffffff16815260200191505060405180910390f35b6102c86004803603606081101561027257600080fd5b81019080803573ffffffffffffffffffffffffffffffffffffffff169060200190929190803573ffffffffffffffffffffffffffffffffffffffff16906020019092919080359060200190929190505050610746565b60405180821515815260200191505060405180910390f35b6102e861081f565b604051808260ff16815260200191505060405180910390f35b61034d6004803603604081101561031757600080fd5b81019080803573ffffffffffffffffffffffffffffffffffffffff16906020019092919080359060200190929190505050610836565b60405180821515815260200191505060405180910390f35b6103b16004803603604081101561037b57600080fd5b81019080803573ffffffffffffffffffffffffffffffffffffffff169060200190929190803590602001909291905050506108e9565b005b6103f5600480360360208110156103c957600080fd5b81019080803573ffffffffffffffffffffffffffffffffffffffff16906020019092919050505061099b565b6040518082815260200191505060405180910390f35b6104136109e4565b6040518080602001828103825283818151815260200191508051906020019080838360005b83811015610453578082015181840152602081019050610438565b50505050905090810190601f1680156104805780820380516001836020036101000a031916815260200191505b509250505060405180910390f35b6104da600480360360408110156104a457600080fd5b81019080803573ffffffffffffffffffffffffffffffffffffffff16906020019092919080359060200190929190505050610a86565b005b610528600480360360408110156104f257600080fd5b81019080803573ffffffffffffffffffffffffffffffffffffffff16906020019092919080359060200190929190505050610b38565b60405180821515815260200191505060405180910390f35b61058c6004803603604081101561055657600080fd5b81019080803573ffffffffffffffffffffffffffffffffffffffff16906020019092919080359060200190929190505050610c05565b60405180821515815260200191505060405180910390f35b6105ac610c23565b604051808273ffffffffffffffffffffffffffffffffffffffff16815260200191505060405180910390f35b61063a600480360360408110156105ee57600080fd5b81019080803573ffffffffffffffffffffffffffffffffffffffff169060200190929190803573ffffffffffffffffffffffffffffffffffffffff169060200190929190505050610c47565b6040518082815260200191505060405180910390f35b606060068054600181600116156101000203166002900480601f0160208091040260200160405190810160405280929190818152602001828054600181600116156101000203166002900480156106e85780601f106106bd576101008083540402835291602001916106e8565b820191906000526020600020905b8154815290600101906020018083116106cb57829003601f168201915b5050505050905090565b60006107066106ff610cce565b8484610cd6565b6001905092915050565b60025481565b6000600554905090565b600160009054906101000a900473ffffffffffffffffffffffffffffffffffffffff1681565b6000610753848484610ecd565b6108148461075f610cce565b61080f8560405180606001604052806028815260200161174660289139600460008b73ffffffffffffffffffffffffffffffffffffffff1673ffffffffffffffffffffffffffffffffffffffff16815260200190815260200160002060006107c5610cce565b73ffffffffffffffffffffffffffffffffffffffff1673ffffffffffffffffffffffffffffffffffffffff168152602001908152602001600020546111929092919063ffffffff16565b610cd6565b600190509392505050565b6000600860009054906101000a900460ff16905090565b60006108df610843610cce565b846108da8560046000610854610cce565b73ffffffffffffffffffffffffffffffffffffffff1673ffffffffffffffffffffffffffffffffffffffff16815260200190815260200160002060008973ffffffffffffffffffffffffffffffffffffffff1673ffffffffffffffffffffffffffffffffffffffff1681526020019081526020016000205461125290919063ffffffff16565b610cd6565b6001905092915050565b60008054906101000a900473ffffffffffffffffffffffffffffffffffffffff1673ffffffffffffffffffffffffffffffffffffffff163373ffffffffffffffffffffffffffffffffffffffff161461098d576040517f08c379a000000000000000000000000000000000000000000000000000000000815260040180806020018281038252603681526020018061178f6036913960400191505060405180910390fd5b61099782826112da565b5050565b6000600360008373ffffffffffffffffffffffffffffffffffffffff1673ffffffffffffffffffffffffffffffffffffffff168152602001908152602001600020549050919050565b606060078054600181600116156101000203166002900480601f016020809104026020016040519081016040528092919081815260200182805460018160011615610100020316600290048015610a7c5780601f10610a5157610100808354040283529160200191610a7c565b820191906000526020600020905b815481529060010190602001808311610a5f57829003601f168201915b5050505050905090565b60008054906101000a900473ffffffffffffffffffffffffffffffffffffffff1673ffffffffffffffffffffffffffffffffffffffff163373ffffffffffffffffffffffffffffffffffffffff1614610b2a576040517f08c379a000000000000000000000000000000000000000000000000000000000815260040180806020018281038252603681526020018061178f6036913960400191505060405180910390fd5b610b3482826114a3565b5050565b6000610bfb610b45610cce565b84610bf68560405180606001604052806025815260200161180e6025913960046000610b6f610cce565b73ffffffffffffffffffffffffffffffffffffffff1673ffffffffffffffffffffffffffffffffffffffff16815260200190815260200160002060008a73ffffffffffffffffffffffffffffffffffffffff1673ffffffffffffffffffffffffffffffffffffffff168152602001908152602001600020546111929092919063ffffffff16565b610cd6565b6001905092915050565b6000610c19610c12610cce565b8484610ecd565b6001905092915050565b60008054906101000a900473ffffffffffffffffffffffffffffffffffffffff1681565b6000600460008473ffffffffffffffffffffffffffffffffffffffff1673ffffffffffffffffffffffffffffffffffffffff16815260200190815260200160002060008373ffffffffffffffffffffffffffffffffffffffff1673ffffffffffffffffffffffffffffffffffffffff16815260200190815260200160002054905092915050565b600033905090565b600073ffffffffffffffffffffffffffffffffffffffff168373ffffffffffffffffffffffffffffffffffffffff161415610d5c576040517f08c379a00000000000000000000000000000000000000000000000000000000081526004018080602001828103825260248152602001806117ea6024913960400191505060405180910390fd5b600073ffffffffffffffffffffffffffffffffffffffff168273ffffffffffffffffffffffffffffffffffffffff161415610de2576040517f08c379a00000000000000000000000000000000000000000000000000000000081526004018080602001828103825260228152602001806116fe6022913960400191505060405180910390fd5b80600460008573ffffffffffffffffffffffffffffffffffffffff1673ffffffffffffffffffffffffffffffffffffffff16815260200190815260200160002060008473ffffffffffffffffffffffffffffffffffffffff1673ffffffffffffffffffffffffffffffffffffffff168152602001908152602001600020819055508173ffffffffffffffffffffffffffffffffffffffff168373ffffffffffffffffffffffffffffffffffffffff167f8c5be1e5ebec7d5bd14f71427d1e84f3dd0314c0f7b2291e5b200ac8c7c3b925836040518082815260200191505060405180910390a3505050565b600073ffffffffffffffffffffffffffffffffffffffff168373ffffffffffffffffffffffffffffffffffffffff161415610f53576040517f08c379a00000000000000000000000000000000000000000000000000000000081526004018080602001828103825260258152602001806117c56025913960400191505060405180910390fd5b600073ffffffffffffffffffffffffffffffffffffffff168273ffffffffffffffffffffffffffffffffffffffff161415610fd9576040517f08c379a00000000000000000000000000000000000000000000000000000000081526004018080602001828103825260238152602001806116b96023913960400191505060405180910390fd5b610fe4838383611669565b6110508160405180606001604052806026815260200161172060269139600360008773ffffffffffffffffffffffffffffffffffffffff1673ffffffffffffffffffffffffffffffffffffffff168152602001908152602001600020546111929092919063ffffffff16565b600360008573ffffffffffffffffffffffffffffffffffffffff1673ffffffffffffffffffffffffffffffffffffffff168152602001908152602001600020819055506110e581600360008573ffffffffffffffffffffffffffffffffffffffff1673ffffffffffffffffffffffffffffffffffffffff1681526020019081526020016000205461125290919063ffffffff16565b600360008473ffffffffffffffffffffffffffffffffffffffff1673ffffffffffffffffffffffffffffffffffffffff168152602001908152602001600020819055508173ffffffffffffffffffffffffffffffffffffffff168373ffffffffffffffffffffffffffffffffffffffff167fddf252ad1be2c89b69c2b068fc378daa952ba7f163c4a11628f55a4df523b3ef836040518082815260200191505060405180910390a3505050565b600083831115829061123f576040517f08c379a00000000000000000000000000000000000000000000000000000000081526004018080602001828103825283818151815260200191508051906020019080838360005b838110156112045780820151818401526020810190506111e9565b50505050905090810190601f1680156112315780820380516001836020036101000a031916815260200191505b509250505060405180910390fd5b5060008385039050809150509392505050565b6000808284019050838110156112d0576040517f08c379a000000000000000000000000000000000000000000000000000000000815260040180806020018281038252601b8152602001807f536166654d6174683a206164646974696f6e206f766572666c6f77000000000081525060200191505060405180910390fd5b8091505092915050565b600073ffffffffffffffffffffffffffffffffffffffff168273ffffffffffffffffffffffffffffffffffffffff16141561137d576040517f08c379a000000000000000000000000000000000000000000000000000000000815260040180806020018281038252601f8152602001807f45524332303a206d696e7420746f20746865207a65726f20616464726573730081525060200191505060405180910390fd5b61138960008383611669565b61139e8160055461125290919063ffffffff16565b6005819055506113f681600360008573ffffffffffffffffffffffffffffffffffffffff1673ffffffffffffffffffffffffffffffffffffffff1681526020019081526020016000205461125290919063ffffffff16565b600360008473ffffffffffffffffffffffffffffffffffffffff1673ffffffffffffffffffffffffffffffffffffffff168152602001908152602001600020819055508173ffffffffffffffffffffffffffffffffffffffff16600073ffffffffffffffffffffffffffffffffffffffff167fddf252ad1be2c89b69c2b068fc378daa952ba7f163c4a11628f55a4df523b3ef836040518082815260200191505060405180910390a35050565b600073ffffffffffffffffffffffffffffffffffffffff168273ffffffffffffffffffffffffffffffffffffffff161415611529576040517f08c379a000000000000000000000000000000000000000000000000000000000815260040180806020018281038252602181526020018061176e6021913960400191505060405180910390fd5b61153582600083611669565b6115a1816040518060600160405280602281526020016116dc60229139600360008673ffffffffffffffffffffffffffffffffffffffff1673ffffffffffffffffffffffffffffffffffffffff168152602001908152602001600020546111929092919063ffffffff16565b600360008473ffffffffffffffffffffffffffffffffffffffff1673ffffffffffffffffffffffffffffffffffffffff168152602001908152602001600020819055506115f98160055461166e90919063ffffffff16565b600581905550600073ffffffffffffffffffffffffffffffffffffffff168273ffffffffffffffffffffffffffffffffffffffff167fddf252ad1be2c89b69c2b068fc378daa952ba7f163c4a11628f55a4df523b3ef836040518082815260200191505060405180910390a35050565b505050565b60006116b083836040518060400160405280601e81526020017f536166654d6174683a207375627472616374696f6e206f766572666c6f770000815250611192565b90509291505056fe45524332303a207472616e7366657220746f20746865207a65726f206164647265737345524332303a206275726e20616d6f756e7420657863656564732062616c616e636545524332303a20617070726f766520746f20746865207a65726f206164647265737345524332303a207472616e7366657220616d6f756e7420657863656564732062616c616e636545524332303a207472616e7366657220616d6f756e74206578636565647320616c6c6f77616e636545524332303a206275726e2066726f6d20746865207a65726f206164647265737357726170706564313135353a206f6e6c7920666163746f727920616c6c6f77656420746f20706572666f726d206f7065726174696f6e45524332303a207472616e736665722066726f6d20746865207a65726f206164647265737345524332303a20617070726f76652066726f6d20746865207a65726f206164647265737345524332303a2064656372656173656420616c6c6f77616e63652062656c6f77207a65726fa26469706673582212208719e2358388d64e199991ee4fa5b9a20617496b6cc780e13d5a3663de190eae64736f6c634300060c0033",
  "immutableReferences": {},
  "source": "// SPDX-License-Identifier: LGPL-3.0-or-later\r\n\r\npragma solidity >=0.6.0;\r\n\r\nimport { Address } from \"@openzeppelin/contracts/utils/Address.sol\";\r\nimport { ERC20 } from \"@openzeppelin/contracts/token/ERC20/ERC20.sol\";\r\nimport { IERC1155 } from \"@openzeppelin/contracts/token/ERC1155/IERC1155.sol\";\r\nimport { ERC1155Receiver } from \"@openzeppelin/contracts/token/ERC1155/ERC1155Receiver.sol\";\r\n\r\ncontract Wrapped1155Metadata {\r\n    // workaround which also arranges first storage slots of Wrapped1155\r\n    Wrapped1155Factory public factory;\r\n    IERC1155 public multiToken;\r\n    uint256 public tokenId;\r\n    \r\n    modifier onlyFactory() {\r\n        require(msg.sender == address(factory), \"Wrapped1155: only factory allowed to perform operation\");\r\n        _;\r\n    }\r\n}\r\n\r\ncontract Wrapped1155 is Wrapped1155Metadata, ERC20 {\r\n    constructor() public ERC20(\"Wrapped ERC-1155 Implementation\", \"WMT*\") {}\r\n\r\n    function mint(address account, uint256 amount) external onlyFactory {\r\n        _mint(account, amount);\r\n    }\r\n    \r\n    function burn(address account, uint256 amount) external onlyFactory {\r\n        _burn(account, amount);\r\n    }\r\n}\r\n\r\ncontract Wrapped1155Factory is ERC1155Receiver {\r\n    using Address for address;\r\n\r\n    Wrapped1155 public erc20Implementation;\r\n\r\n    constructor() public {\r\n        erc20Implementation = new Wrapped1155();\r\n    }\r\n\r\n    function onERC1155Received(\r\n        address operator,\r\n        address /* from */,\r\n        uint256 id,\r\n        uint256 value,\r\n        bytes calldata data\r\n    )\r\n        external\r\n        override\r\n        returns (bytes4)\r\n    {\r\n        address recipient = data.length > 0 ? \r\n            abi.decode(data, (address)) :\r\n            operator;\r\n\r\n        Wrapped1155 wrapped1155 = requireWrapped1155(IERC1155(msg.sender), id);\r\n        wrapped1155.mint(recipient, value);\r\n\r\n        return this.onERC1155Received.selector;\r\n    }\r\n\r\n    function onERC1155BatchReceived(\r\n        address operator,\r\n        address /* from */,\r\n        uint256[] calldata ids,\r\n        uint256[] calldata values,\r\n        bytes calldata data\r\n    )\r\n        external\r\n        override\r\n        returns (bytes4)\r\n    {\r\n        address recipient = data.length > 0 ? \r\n            abi.decode(data, (address)) :\r\n            operator;\r\n\r\n        for (uint i = 0; i < ids.length; i++) {\r\n            requireWrapped1155(IERC1155(msg.sender), ids[i]).mint(recipient, values[i]);\r\n        }\r\n\r\n        return this.onERC1155BatchReceived.selector;\r\n    }\r\n\r\n    function unwrap(\r\n        IERC1155 multiToken,\r\n        uint256 tokenId,\r\n        uint256 amount,\r\n        address recipient,\r\n        bytes calldata data\r\n    )\r\n        external\r\n    {\r\n        getWrapped1155(multiToken, tokenId).burn(msg.sender, amount);\r\n        multiToken.safeTransferFrom(address(this), recipient, tokenId, amount, data);\r\n    }\r\n\r\n    function batchUnwrap(\r\n        IERC1155 multiToken,\r\n        uint256[] calldata tokenIds,\r\n        uint256[] calldata amounts,\r\n        address recipient,\r\n        bytes calldata data\r\n    )\r\n        external\r\n    {\r\n        require(tokenIds.length == amounts.length, \"Wrapped1155Factory: mismatched input arrays\");\r\n        for (uint i = 0; i < tokenIds.length; i++) {\r\n            getWrapped1155(multiToken, tokenIds[i]).burn(msg.sender, amounts[i]);\r\n        }\r\n        multiToken.safeBatchTransferFrom(address(this), recipient, tokenIds, amounts, data);\r\n    }\r\n\r\n    function getWrapped1155DeployBytecode(IERC1155 multiToken, uint256 tokenId)\r\n        public\r\n        view\r\n        returns (bytes memory)\r\n    {\r\n        return abi.encodePacked(\r\n            // assign factory\r\n            hex\"73\",\r\n            this,\r\n            hex\"3d55\",\r\n            \r\n            // assign multiToken\r\n            hex\"73\",\r\n            multiToken,\r\n            hex\"600155\",\r\n            \r\n            // assign tokenId\r\n            hex\"7f\",\r\n            tokenId,\r\n            hex\"600255\",\r\n            \r\n            // assign name\r\n            hex\"7f\",\r\n            \"Wrapped ERC-1155\", uint128(32),\r\n            hex\"600655\",\r\n            \r\n            // assign symbol\r\n            hex\"7f\",\r\n            \"WMT\", uint232(6),\r\n            hex\"600755\",\r\n            \r\n            // assign decimals\r\n            hex\"60\",\r\n            uint8(18),\r\n            hex\"600855\",\r\n\r\n            // push 44 (length of runtime)\r\n            hex\"60\", uint8(44),\r\n            // load free memory pointer\r\n            hex\"604051\",\r\n\r\n            // dup runtime length\r\n            hex\"81\",\r\n            // push offset in this calldata to runtime object,\r\n            hex\"60\", uint8(171),\r\n            // dup free memory pointer\r\n            hex\"82\"\r\n            \r\n            // codecopy runtime to memory and return\r\n            hex\"39f3\",\r\n\r\n            // greetz 0age for More-Minimal Proxy runtime bytecode:\r\n            hex\"3d3d3d3d363d3d37363d73\",\r\n            address(erc20Implementation),\r\n            hex\"5af43d3d93803e602a57fd5bf3\"\r\n        );\r\n    }\r\n    \r\n    function getWrapped1155(IERC1155 multiToken, uint256 tokenId)\r\n        public\r\n        view\r\n        returns (Wrapped1155)\r\n    {\r\n        return Wrapped1155(address(uint256(keccak256(abi.encodePacked(\r\n            uint8(0xff),\r\n            this,\r\n            uint256(1155),\r\n            keccak256(getWrapped1155DeployBytecode(multiToken, tokenId))\r\n        )))));\r\n    }\r\n\r\n    event Wrapped1155Creation(\r\n        IERC1155 indexed multiToken,\r\n        uint256 indexed tokenId,\r\n        Wrapped1155 indexed wrappedToken\r\n    );\r\n\r\n    function requireWrapped1155(IERC1155 multiToken, uint256 tokenId)\r\n        public\r\n        returns (Wrapped1155)\r\n    {\r\n        bytes memory deployBytecode = getWrapped1155DeployBytecode(multiToken, tokenId);\r\n\r\n        address wrapped1155Address = address(uint256(keccak256(abi.encodePacked(\r\n            uint8(0xff),\r\n            this,\r\n            uint256(1155),\r\n            keccak256(deployBytecode)\r\n        ))));\r\n\r\n        if (!wrapped1155Address.isContract()) {\r\n            address addr;\r\n            assembly {\r\n              addr := create2(0, add(deployBytecode, 0x20), mload(deployBytecode), 1155)\r\n            }\r\n            require(wrapped1155Address == addr, \"Wrapped1155Factory: failed to deploy\");\r\n\r\n            emit Wrapped1155Creation(\r\n                multiToken,\r\n                tokenId,\r\n                Wrapped1155(wrapped1155Address)\r\n            );\r\n        }\r\n\r\n        return Wrapped1155(wrapped1155Address);\r\n    }\r\n}\r\n",
  "sourcePath": "C:/Users/Alan/Documents/GitHub/1155-to-20/contracts/Wrapped1155Factory.sol",
  "compiler": {
    "name": "solc",
    "version": "0.6.12+commit.27d51765.Emscripten.clang"
  },
  "schemaVersion": "3.2.4",
  "updatedAt": "2020-09-30T23:56:56.319Z",
  "devdoc": {
    "kind": "dev",
    "methods": {
      "supportsInterface(bytes4)": {
        "details": "See {IERC165-supportsInterface}. Time complexity O(1), guaranteed to always use less than 30 000 gas."
      }
    },
    "version": 1
  },
  "userdoc": {
    "kind": "user",
    "methods": {},
    "version": 1
  }
}