{
  "contractName": "Wrapped1155",
  "abi": [
    {
      "inputs": [],
      "stateMutability": "nonpayable",
      "type": "constructor"
    },
    {
      "anonymous": false,
      "inputs": [
        {
          "indexed": true,
          "internalType": "address",
          "name": "owner",
          "type": "address"
        },
        {
          "indexed": true,
          "internalType": "address",
          "name": "spender",
          "type": "address"
        },
        {
          "indexed": false,
          "internalType": "uint256",
          "name": "value",
          "type": "uint256"
        }
      ],
      "name": "Approval",
      "type": "event"
    },
    {
      "anonymous": false,
      "inputs": [
        {
          "indexed": true,
          "internalType": "address",
          "name": "from",
          "type": "address"
        },
        {
          "indexed": true,
          "internalType": "address",
          "name": "to",
          "type": "address"
        },
        {
          "indexed": false,
          "internalType": "uint256",
          "name": "value",
          "type": "uint256"
        }
      ],
      "name": "Transfer",
      "type": "event"
    },
    {
      "inputs": [
        {
          "internalType": "address",
          "name": "owner",
          "type": "address"
        },
        {
          "internalType": "address",
          "name": "spender",
          "type": "address"
        }
      ],
      "name": "allowance",
      "outputs": [
        {
          "internalType": "uint256",
          "name": "",
          "type": "uint256"
        }
      ],
      "stateMutability": "view",
      "type": "function"
    },
    {
      "inputs": [
        {
          "internalType": "address",
          "name": "spender",
          "type": "address"
        },
        {
          "internalType": "uint256",
          "name": "amount",
          "type": "uint256"
        }
      ],
      "name": "approve",
      "outputs": [
        {
          "internalType": "bool",
          "name": "",
          "type": "bool"
        }
      ],
      "stateMutability": "nonpayable",
      "type": "function"
    },
    {
      "inputs": [
        {
          "internalType": "address",
          "name": "account",
          "type": "address"
        }
      ],
      "name": "balanceOf",
      "outputs": [
        {
          "internalType": "uint256",
          "name": "",
          "type": "uint256"
        }
      ],
      "stateMutability": "view",
      "type": "function"
    },
    {
      "inputs": [],
      "name": "decimals",
      "outputs": [
        {
          "internalType": "uint8",
          "name": "",
          "type": "uint8"
        }
      ],
      "stateMutability": "view",
      "type": "function"
    },
    {
      "inputs": [
        {
          "internalType": "address",
          "name": "spender",
          "type": "address"
        },
        {
          "internalType": "uint256",
          "name": "subtractedValue",
          "type": "uint256"
        }
      ],
      "name": "decreaseAllowance",
      "outputs": [
        {
          "internalType": "bool",
          "name": "",
          "type": "bool"
        }
      ],
      "stateMutability": "nonpayable",
      "type": "function"
    },
    {
      "inputs": [],
      "name": "factory",
      "outputs": [
        {
          "internalType": "contract Wrapped1155Factory",
          "name": "",
          "type": "address"
        }
      ],
      "stateMutability": "view",
      "type": "function"
    },
    {
      "inputs": [
        {
          "internalType": "address",
          "name": "spender",
          "type": "address"
        },
        {
          "internalType": "uint256",
          "name": "addedValue",
          "type": "uint256"
        }
      ],
      "name": "increaseAllowance",
      "outputs": [
        {
          "internalType": "bool",
          "name": "",
          "type": "bool"
        }
      ],
      "stateMutability": "nonpayable",
      "type": "function"
    },
    {
      "inputs": [],
      "name": "multiToken",
      "outputs": [
        {
          "internalType": "contract IERC1155",
          "name": "",
          "type": "address"
        }
      ],
      "stateMutability": "view",
      "type": "function"
    },
    {
      "inputs": [],
      "name": "name",
      "outputs": [
        {
          "internalType": "string",
          "name": "",
          "type": "string"
        }
      ],
      "stateMutability": "view",
      "type": "function"
    },
    {
      "inputs": [],
      "name": "symbol",
      "outputs": [
        {
          "internalType": "string",
          "name": "",
          "type": "string"
        }
      ],
      "stateMutability": "view",
      "type": "function"
    },
    {
      "inputs": [],
      "name": "tokenId",
      "outputs": [
        {
          "internalType": "uint256",
          "name": "",
          "type": "uint256"
        }
      ],
      "stateMutability": "view",
      "type": "function"
    },
    {
      "inputs": [],
      "name": "totalSupply",
      "outputs": [
        {
          "internalType": "uint256",
          "name": "",
          "type": "uint256"
        }
      ],
      "stateMutability": "view",
      "type": "function"
    },
    {
      "inputs": [
        {
          "internalType": "address",
          "name": "recipient",
          "type": "address"
        },
        {
          "internalType": "uint256",
          "name": "amount",
          "type": "uint256"
        }
      ],
      "name": "transfer",
      "outputs": [
        {
          "internalType": "bool",
          "name": "",
          "type": "bool"
        }
      ],
      "stateMutability": "nonpayable",
      "type": "function"
    },
    {
      "inputs": [
        {
          "internalType": "address",
          "name": "sender",
          "type": "address"
        },
        {
          "internalType": "address",
          "name": "recipient",
          "type": "address"
        },
        {
          "internalType": "uint256",
          "name": "amount",
          "type": "uint256"
        }
      ],
      "name": "transferFrom",
      "outputs": [
        {
          "internalType": "bool",
          "name": "",
          "type": "bool"
        }
      ],
      "stateMutability": "nonpayable",
      "type": "function"
    },
    {
      "inputs": [
        {
          "internalType": "address",
          "name": "account",
          "type": "address"
        },
        {
          "internalType": "uint256",
          "name": "amount",
          "type": "uint256"
        }
      ],
      "name": "mint",
      "outputs": [],
      "stateMutability": "nonpayable",
      "type": "function"
    },
    {
      "inputs": [
        {
          "internalType": "address",
          "name": "account",
          "type": "address"
        },
        {
          "internalType": "uint256",
          "name": "amount",
          "type": "uint256"
        }
      ],
      "name": "burn",
      "outputs": [],
      "stateMutability": "nonpayable",
      "type": "function"
    }
  ],
  "bytecode": "0x60806040523480156200001157600080fd5b506040518060400160405280601f81526020017f57726170706564204552432d3131353520496d706c656d656e746174696f6e008152506040518060400160405280600481526020017f574d542a00000000000000000000000000000000000000000000000000000000815250816006908051906020019062000096929190620000d4565b508060079080519060200190620000af929190620000d4565b506012600860006101000a81548160ff021916908360ff16021790555050506200017a565b828054600181600116156101000203166002900490600052602060002090601f016020900481019282601f106200011757805160ff191683800117855562000148565b8280016001018555821562000148579182015b82811115620001475782518255916020019190600101906200012a565b5b5090506200015791906200015b565b5090565b5b80821115620001765760008160009055506001016200015c565b5090565b61189b806200018a6000396000f3fe608060405234801561001057600080fd5b50600436106101005760003560e01c806340c10f1911610097578063a457c2d711610066578063a457c2d7146104dc578063a9059cbb14610540578063c45a0155146105a4578063dd62ed3e146105d857610100565b806340c10f191461036557806370a08231146103b357806395d89b411461040b5780639dc29fac1461048e57610100565b80631904e5c9116100d35780631904e5c91461022857806323b872dd1461025c578063313ce567146102e0578063395093511461030157610100565b806306fdde0314610105578063095ea7b31461018857806317d70f7c146101ec57806318160ddd1461020a575b600080fd5b61010d610650565b6040518080602001828103825283818151815260200191508051906020019080838360005b8381101561014d578082015181840152602081019050610132565b50505050905090810190601f16801561017a5780820380516001836020036101000a031916815260200191505b509250505060405180910390f35b6101d46004803603604081101561019e57600080fd5b81019080803573ffffffffffffffffffffffffffffffffffffffff169060200190929190803590602001909291905050506106f2565b60405180821515815260200191505060405180910390f35b6101f4610710565b6040518082815260200191505060405180910390f35b610212610716565b6040518082815260200191505060405180910390f35b610230610720565b604051808273ffffffffffffffffffffffffffffffffffffffff16815260200191505060405180910390f35b6102c86004803603606081101561027257600080fd5b81019080803573ffffffffffffffffffffffffffffffffffffffff169060200190929190803573ffffffffffffffffffffffffffffffffffffffff16906020019092919080359060200190929190505050610746565b60405180821515815260200191505060405180910390f35b6102e861081f565b604051808260ff16815260200191505060405180910390f35b61034d6004803603604081101561031757600080fd5b81019080803573ffffffffffffffffffffffffffffffffffffffff16906020019092919080359060200190929190505050610836565b60405180821515815260200191505060405180910390f35b6103b16004803603604081101561037b57600080fd5b81019080803573ffffffffffffffffffffffffffffffffffffffff169060200190929190803590602001909291905050506108e9565b005b6103f5600480360360208110156103c957600080fd5b81019080803573ffffffffffffffffffffffffffffffffffffffff16906020019092919050505061099b565b6040518082815260200191505060405180910390f35b6104136109e4565b6040518080602001828103825283818151815260200191508051906020019080838360005b83811015610453578082015181840152602081019050610438565b50505050905090810190601f1680156104805780820380516001836020036101000a031916815260200191505b509250505060405180910390f35b6104da600480360360408110156104a457600080fd5b81019080803573ffffffffffffffffffffffffffffffffffffffff16906020019092919080359060200190929190505050610a86565b005b610528600480360360408110156104f257600080fd5b81019080803573ffffffffffffffffffffffffffffffffffffffff16906020019092919080359060200190929190505050610b38565b60405180821515815260200191505060405180910390f35b61058c6004803603604081101561055657600080fd5b81019080803573ffffffffffffffffffffffffffffffffffffffff16906020019092919080359060200190929190505050610c05565b60405180821515815260200191505060405180910390f35b6105ac610c23565b604051808273ffffffffffffffffffffffffffffffffffffffff16815260200191505060405180910390f35b61063a600480360360408110156105ee57600080fd5b81019080803573ffffffffffffffffffffffffffffffffffffffff169060200190929190803573ffffffffffffffffffffffffffffffffffffffff169060200190929190505050610c47565b6040518082815260200191505060405180910390f35b606060068054600181600116156101000203166002900480601f0160208091040260200160405190810160405280929190818152602001828054600181600116156101000203166002900480156106e85780601f106106bd576101008083540402835291602001916106e8565b820191906000526020600020905b8154815290600101906020018083116106cb57829003601f168201915b5050505050905090565b60006107066106ff610cce565b8484610cd6565b6001905092915050565b60025481565b6000600554905090565b600160009054906101000a900473ffffffffffffffffffffffffffffffffffffffff1681565b6000610753848484610ecd565b6108148461075f610cce565b61080f8560405180606001604052806028815260200161177960289139600460008b73ffffffffffffffffffffffffffffffffffffffff1673ffffffffffffffffffffffffffffffffffffffff16815260200190815260200160002060006107c5610cce565b73ffffffffffffffffffffffffffffffffffffffff1673ffffffffffffffffffffffffffffffffffffffff168152602001908152602001600020546111929092919063ffffffff16565b610cd6565b600190509392505050565b6000600860009054906101000a900460ff16905090565b60006108df610843610cce565b846108da8560046000610854610cce565b73ffffffffffffffffffffffffffffffffffffffff1673ffffffffffffffffffffffffffffffffffffffff16815260200190815260200160002060008973ffffffffffffffffffffffffffffffffffffffff1673ffffffffffffffffffffffffffffffffffffffff1681526020019081526020016000205461124c90919063ffffffff16565b610cd6565b6001905092915050565b60008054906101000a900473ffffffffffffffffffffffffffffffffffffffff1673ffffffffffffffffffffffffffffffffffffffff163373ffffffffffffffffffffffffffffffffffffffff161461098d576040517f08c379a00000000000000000000000000000000000000000000000000000000081526004018080602001828103825260368152602001806117c26036913960400191505060405180910390fd5b61099782826112d4565b5050565b6000600360008373ffffffffffffffffffffffffffffffffffffffff1673ffffffffffffffffffffffffffffffffffffffff168152602001908152602001600020549050919050565b606060078054600181600116156101000203166002900480601f016020809104026020016040519081016040528092919081815260200182805460018160011615610100020316600290048015610a7c5780601f10610a5157610100808354040283529160200191610a7c565b820191906000526020600020905b815481529060010190602001808311610a5f57829003601f168201915b5050505050905090565b60008054906101000a900473ffffffffffffffffffffffffffffffffffffffff1673ffffffffffffffffffffffffffffffffffffffff163373ffffffffffffffffffffffffffffffffffffffff1614610b2a576040517f08c379a00000000000000000000000000000000000000000000000000000000081526004018080602001828103825260368152602001806117c26036913960400191505060405180910390fd5b610b34828261149d565b5050565b6000610bfb610b45610cce565b84610bf6856040518060600160405280602581526020016118416025913960046000610b6f610cce565b73ffffffffffffffffffffffffffffffffffffffff1673ffffffffffffffffffffffffffffffffffffffff16815260200190815260200160002060008a73ffffffffffffffffffffffffffffffffffffffff1673ffffffffffffffffffffffffffffffffffffffff168152602001908152602001600020546111929092919063ffffffff16565b610cd6565b6001905092915050565b6000610c19610c12610cce565b8484610ecd565b6001905092915050565b60008054906101000a900473ffffffffffffffffffffffffffffffffffffffff1681565b6000600460008473ffffffffffffffffffffffffffffffffffffffff1673ffffffffffffffffffffffffffffffffffffffff16815260200190815260200160002060008373ffffffffffffffffffffffffffffffffffffffff1673ffffffffffffffffffffffffffffffffffffffff16815260200190815260200160002054905092915050565b600033905090565b600073ffffffffffffffffffffffffffffffffffffffff168373ffffffffffffffffffffffffffffffffffffffff161415610d5c576040517f08c379a000000000000000000000000000000000000000000000000000000000815260040180806020018281038252602481526020018061181d6024913960400191505060405180910390fd5b600073ffffffffffffffffffffffffffffffffffffffff168273ffffffffffffffffffffffffffffffffffffffff161415610de2576040517f08c379a00000000000000000000000000000000000000000000000000000000081526004018080602001828103825260228152602001806117316022913960400191505060405180910390fd5b80600460008573ffffffffffffffffffffffffffffffffffffffff1673ffffffffffffffffffffffffffffffffffffffff16815260200190815260200160002060008473ffffffffffffffffffffffffffffffffffffffff1673ffffffffffffffffffffffffffffffffffffffff168152602001908152602001600020819055508173ffffffffffffffffffffffffffffffffffffffff168373ffffffffffffffffffffffffffffffffffffffff167f8c5be1e5ebec7d5bd14f71427d1e84f3dd0314c0f7b2291e5b200ac8c7c3b925836040518082815260200191505060405180910390a3505050565b600073ffffffffffffffffffffffffffffffffffffffff168373ffffffffffffffffffffffffffffffffffffffff161415610f53576040517f08c379a00000000000000000000000000000000000000000000000000000000081526004018080602001828103825260258152602001806117f86025913960400191505060405180910390fd5b600073ffffffffffffffffffffffffffffffffffffffff168273ffffffffffffffffffffffffffffffffffffffff161415610fd9576040517f08c379a00000000000000000000000000000000000000000000000000000000081526004018080602001828103825260238152602001806116ec6023913960400191505060405180910390fd5b610fe4838383611663565b6110508160405180606001604052806026815260200161175360269139600360008773ffffffffffffffffffffffffffffffffffffffff1673ffffffffffffffffffffffffffffffffffffffff168152602001908152602001600020546111929092919063ffffffff16565b600360008573ffffffffffffffffffffffffffffffffffffffff1673ffffffffffffffffffffffffffffffffffffffff168152602001908152602001600020819055506110e581600360008573ffffffffffffffffffffffffffffffffffffffff1673ffffffffffffffffffffffffffffffffffffffff1681526020019081526020016000205461124c90919063ffffffff16565b600360008473ffffffffffffffffffffffffffffffffffffffff1673ffffffffffffffffffffffffffffffffffffffff168152602001908152602001600020819055508173ffffffffffffffffffffffffffffffffffffffff168373ffffffffffffffffffffffffffffffffffffffff167fddf252ad1be2c89b69c2b068fc378daa952ba7f163c4a11628f55a4df523b3ef836040518082815260200191505060405180910390a3505050565b600083831115829061123f576040517f08c379a00000000000000000000000000000000000000000000000000000000081526004018080602001828103825283818151815260200191508051906020019080838360005b838110156112045780820151818401526020810190506111e9565b50505050905090810190601f1680156112315780820380516001836020036101000a031916815260200191505b509250505060405180910390fd5b5082840390509392505050565b6000808284019050838110156112ca576040517f08c379a000000000000000000000000000000000000000000000000000000000815260040180806020018281038252601b8152602001807f536166654d6174683a206164646974696f6e206f766572666c6f77000000000081525060200191505060405180910390fd5b8091505092915050565b600073ffffffffffffffffffffffffffffffffffffffff168273ffffffffffffffffffffffffffffffffffffffff161415611377576040517f08c379a000000000000000000000000000000000000000000000000000000000815260040180806020018281038252601f8152602001807f45524332303a206d696e7420746f20746865207a65726f20616464726573730081525060200191505060405180910390fd5b61138360008383611663565b6113988160055461124c90919063ffffffff16565b6005819055506113f081600360008573ffffffffffffffffffffffffffffffffffffffff1673ffffffffffffffffffffffffffffffffffffffff1681526020019081526020016000205461124c90919063ffffffff16565b600360008473ffffffffffffffffffffffffffffffffffffffff1673ffffffffffffffffffffffffffffffffffffffff168152602001908152602001600020819055508173ffffffffffffffffffffffffffffffffffffffff16600073ffffffffffffffffffffffffffffffffffffffff167fddf252ad1be2c89b69c2b068fc378daa952ba7f163c4a11628f55a4df523b3ef836040518082815260200191505060405180910390a35050565b600073ffffffffffffffffffffffffffffffffffffffff168273ffffffffffffffffffffffffffffffffffffffff161415611523576040517f08c379a00000000000000000000000000000000000000000000000000000000081526004018080602001828103825260218152602001806117a16021913960400191505060405180910390fd5b61152f82600083611663565b61159b8160405180606001604052806022815260200161170f60229139600360008673ffffffffffffffffffffffffffffffffffffffff1673ffffffffffffffffffffffffffffffffffffffff168152602001908152602001600020546111929092919063ffffffff16565b600360008473ffffffffffffffffffffffffffffffffffffffff1673ffffffffffffffffffffffffffffffffffffffff168152602001908152602001600020819055506115f38160055461166890919063ffffffff16565b600581905550600073ffffffffffffffffffffffffffffffffffffffff168273ffffffffffffffffffffffffffffffffffffffff167fddf252ad1be2c89b69c2b068fc378daa952ba7f163c4a11628f55a4df523b3ef836040518082815260200191505060405180910390a35050565b505050565b6000828211156116e0576040517f08c379a000000000000000000000000000000000000000000000000000000000815260040180806020018281038252601e8152602001807f536166654d6174683a207375627472616374696f6e206f766572666c6f77000081525060200191505060405180910390fd5b81830390509291505056fe45524332303a207472616e7366657220746f20746865207a65726f206164647265737345524332303a206275726e20616d6f756e7420657863656564732062616c616e636545524332303a20617070726f766520746f20746865207a65726f206164647265737345524332303a207472616e7366657220616d6f756e7420657863656564732062616c616e636545524332303a207472616e7366657220616d6f756e74206578636565647320616c6c6f77616e636545524332303a206275726e2066726f6d20746865207a65726f206164647265737357726170706564313135353a206f6e6c7920666163746f727920616c6c6f77656420746f20706572666f726d206f7065726174696f6e45524332303a207472616e736665722066726f6d20746865207a65726f206164647265737345524332303a20617070726f76652066726f6d20746865207a65726f206164647265737345524332303a2064656372656173656420616c6c6f77616e63652062656c6f77207a65726fa2646970667358221220a1486428d8ac63b6d048d99e699abcb1e2b592e0e11a14f586027817ee5143f764736f6c634300060c0033",
  "immutableReferences": {},
  "source": "    // SPDX-License-Identifier: LGPL-3.0-or-later\n\npragma solidity >=0.6.0;\n\nimport { Address } from \"@openzeppelin/contracts/utils/Address.sol\";\nimport { ERC20 } from \"@openzeppelin/contracts/token/ERC20/ERC20.sol\";\nimport { IERC1155 } from \"@openzeppelin/contracts/token/ERC1155/IERC1155.sol\";\nimport { ERC1155Receiver } from \"@openzeppelin/contracts/token/ERC1155/ERC1155Receiver.sol\";\nimport { SafeMath } from \"@openzeppelin/contracts/math/SafeMath.sol\";\n\ncontract Wrapped1155Metadata {\n    // workaround which also arranges first storage slots of Wrapped1155\n    Wrapped1155Factory public factory;\n    IERC1155 public multiToken;\n    uint256 public tokenId;\n    \n    modifier onlyFactory() {\n        require(msg.sender == address(factory), \"Wrapped1155: only factory allowed to perform operation\");\n        _;\n    }\n}\n\ncontract Wrapped1155 is Wrapped1155Metadata, ERC20 {\n\n    constructor() public ERC20(\"Wrapped ERC-1155 Implementation\", \"WMT*\") {}\n\n    function mint(address account, uint256 amount) external onlyFactory {\n        _mint(account, amount);\n    }\n    \n    function burn(address account, uint256 amount) external onlyFactory {\n        _burn(account, amount);\n    }\n}\n\ncontract Wrapped1155Factory is ERC1155Receiver {\n    using Address for address;\n    using SafeMath for uint;\n\n    Wrapped1155 public erc20Implementation;\n\n    constructor() public {\n        erc20Implementation = new Wrapped1155();\n    }\n\n    function onERC1155Received(\n        address operator,\n        address /* from */,\n        uint256 id,\n        uint256 value,\n        bytes calldata data\n    )\n        external\n        override\n        returns (bytes4)\n    {\n        address recipient = operator;\n        // address recipient = data.length > 65 ? \n        //     abi.decode(data[65:], (address)) :\n        //     operator;\n\n        Wrapped1155 wrapped1155 = requireWrapped1155(IERC1155(msg.sender), id, data);\n        wrapped1155.mint(recipient, value);\n\n        return this.onERC1155Received.selector;\n    }\n\n    function onERC1155BatchReceived(\n        address operator,\n        address /* from */,\n        uint256[] calldata ids,\n        uint256[] calldata values,\n        bytes calldata data\n    )\n        external\n        override\n        returns (bytes4)\n    {\n        require(ids.length.mul(65) == data.length, \"Wrapped1155Factory: data bytes should be ids size\");\n        address recipient = operator;\n        // address recipient = (data.length > 65) ?\n        //     abi.decode(bytes(data[64:]), (address)) :\n        //     operator;\n\n        for (uint i = 0; i < ids.length; i++) {\n            uint first = i.mul(65);\n            uint next = first.add(65);\n            requireWrapped1155(IERC1155(msg.sender), ids[i], bytes(data[first:next])).mint(recipient, values[i]);\n        }        \n\n        return this.onERC1155BatchReceived.selector;\n    }\n\n    function unwrap(\n        IERC1155 multiToken,\n        uint256 tokenId,\n        uint256 amount,\n        address recipient,\n        bytes calldata data\n    )\n        external\n    {\n        getWrapped1155(multiToken, tokenId, data).burn(msg.sender, amount);\n        multiToken.safeTransferFrom(address(this), recipient, tokenId, amount, data);\n    }\n\n    function batchUnwrap(\n        IERC1155 multiToken,\n        uint256[] calldata tokenIds,\n        uint256[] calldata amounts,\n        address recipient,\n        bytes calldata data\n    )\n        external\n    {\n        require(tokenIds.length == amounts.length, \"Wrapped1155Factory: mismatched input arrays\");\n        require(tokenIds.length.mul(65) == data.length, \"Wrapped1155Factory: data bytes should be ids size\");\n        for (uint i = 0; i < tokenIds.length; i++) {\n            uint first = i.mul(65);\n            uint next = first.add(65);\n            getWrapped1155(multiToken, tokenIds[i], bytes(data[first:next])).burn(msg.sender, amounts[i]);\n        }\n        multiToken.safeBatchTransferFrom(address(this), recipient, tokenIds, amounts, data);\n    }\n\n    function getWrapped1155DeployBytecode(\n        IERC1155 multiToken, \n        uint256 tokenId, \n        bytes calldata data\n    )\n        public\n        view\n        returns (bytes memory)\n    {\n        bytes memory tokenName = bytes(data[:32]);\n        bytes memory tokenSymbol = bytes(data[32:64]);\n        bytes memory tokenDecimal = bytes(data[64:65]);\n        return abi.encodePacked(\n            // assign factory\n            hex\"73\",\n            this,\n            hex\"3d55\",\n            \n            // assign multiToken\n            hex\"73\",\n            multiToken,\n            hex\"600155\",\n            \n            // assign tokenId\n            hex\"7f\",\n            tokenId,\n            hex\"600255\",\n            \n            // assign name\n            hex\"7f\",\n            tokenName,\n            hex\"600655\",\n            \n            // assign symbol\n            hex\"7f\",\n            tokenSymbol,\n            hex\"600755\",\n            \n            // assign decimals\n            hex\"60\",\n            tokenDecimal, \n            hex\"600855\",\n\n            // push 44 (length of runtime)\n            hex\"60\", uint8(44),\n            // load free memory pointer\n            hex\"604051\",\n\n            // dup runtime length\n            hex\"81\",\n            // push offset in this calldata to runtime object,\n            hex\"60\", uint8(171),\n            // dup free memory pointer\n            hex\"82\"\n            \n            // codecopy runtime to memory and return\n            hex\"39f3\",\n\n            // greetz 0age for More-Minimal Proxy runtime bytecode\n            // @link [Minimal Proxy Contract](https://eips.ethereum.org/EIPS/eip-1167)\n            // @link [More-Minimal Proxy](https://medium.com/coinmonks/the-more-minimal-proxy-5756ae08ee48)\n            hex\"3d3d3d3d363d3d37363d73\",\n            address(erc20Implementation),\n            hex\"5af43d3d93803e602a57fd5bf3\"\n        );\n    }\n    \n    function getWrapped1155(\n        IERC1155 multiToken,\n        uint256 tokenId,\n        bytes calldata data\n    )\n        public\n        view\n        returns (Wrapped1155)\n    {\n        return Wrapped1155(address(uint256(keccak256(abi.encodePacked(\n            uint8(0xff),\n            this,\n            uint256(1155),\n            keccak256(getWrapped1155DeployBytecode(multiToken, tokenId, data))\n        )))));\n    }\n\n    event Wrapped1155Creation(\n        IERC1155 indexed multiToken,\n        uint256 indexed tokenId,\n        Wrapped1155 indexed wrappedToken\n    );\n\n    function requireWrapped1155(\n        IERC1155 multiToken,\n        uint256 tokenId,\n        bytes calldata data\n    )\n        public\n        returns (Wrapped1155)\n    {\n        bytes memory deployBytecode = getWrapped1155DeployBytecode(multiToken, tokenId, data);\n\n        address wrapped1155Address = address(uint256(keccak256(abi.encodePacked(\n            uint8(0xff),\n            this,\n            uint256(1155),\n            keccak256(deployBytecode)\n        ))));\n\n        if (!wrapped1155Address.isContract()) {\n            address addr;\n            assembly {\n              addr := create2(0, add(deployBytecode, 0x20), mload(deployBytecode), 1155)\n            }\n            require(wrapped1155Address == addr, \"Wrapped1155Factory: failed to deploy\");\n\n            emit Wrapped1155Creation(\n                multiToken,\n                tokenId,\n                Wrapped1155(wrapped1155Address)\n            );\n        }\n\n        return Wrapped1155(wrapped1155Address);\n    }\n}\n",
  "sourcePath": "/home/david/Develop/conditionaltokens/1155-to-20/contracts/Wrapped1155Factory.sol",
  "compiler": {
    "name": "solc",
    "version": "0.6.12+commit.27d51765.Emscripten.clang"
  },
  "schemaVersion": "3.3.3",
  "updatedAt": "2021-03-24T09:35:52.092Z",
  "networkType": "ethereum",
  "devdoc": {
    "kind": "dev",
    "methods": {
      "allowance(address,address)": {
        "details": "See {IERC20-allowance}."
      },
      "approve(address,uint256)": {
        "details": "See {IERC20-approve}. Requirements: - `spender` cannot be the zero address."
      },
      "balanceOf(address)": {
        "details": "See {IERC20-balanceOf}."
      },
      "decimals()": {
        "details": "Returns the number of decimals used to get its user representation. For example, if `decimals` equals `2`, a balance of `505` tokens should be displayed to a user as `5,05` (`505 / 10 ** 2`). Tokens usually opt for a value of 18, imitating the relationship between Ether and Wei. This is the value {ERC20} uses, unless {_setupDecimals} is called. NOTE: This information is only used for _display_ purposes: it in no way affects any of the arithmetic of the contract, including {IERC20-balanceOf} and {IERC20-transfer}."
      },
      "decreaseAllowance(address,uint256)": {
        "details": "Atomically decreases the allowance granted to `spender` by the caller. This is an alternative to {approve} that can be used as a mitigation for problems described in {IERC20-approve}. Emits an {Approval} event indicating the updated allowance. Requirements: - `spender` cannot be the zero address. - `spender` must have allowance for the caller of at least `subtractedValue`."
      },
      "increaseAllowance(address,uint256)": {
        "details": "Atomically increases the allowance granted to `spender` by the caller. This is an alternative to {approve} that can be used as a mitigation for problems described in {IERC20-approve}. Emits an {Approval} event indicating the updated allowance. Requirements: - `spender` cannot be the zero address."
      },
      "name()": {
        "details": "Returns the name of the token."
      },
      "symbol()": {
        "details": "Returns the symbol of the token, usually a shorter version of the name."
      },
      "totalSupply()": {
        "details": "See {IERC20-totalSupply}."
      },
      "transfer(address,uint256)": {
        "details": "See {IERC20-transfer}. Requirements: - `recipient` cannot be the zero address. - the caller must have a balance of at least `amount`."
      },
      "transferFrom(address,address,uint256)": {
        "details": "See {IERC20-transferFrom}. Emits an {Approval} event indicating the updated allowance. This is not required by the EIP. See the note at the beginning of {ERC20}. Requirements: - `sender` and `recipient` cannot be the zero address. - `sender` must have a balance of at least `amount`. - the caller must have allowance for ``sender``'s tokens of at least `amount`."
      }
    },
    "version": 1
  },
  "userdoc": {
    "kind": "user",
    "methods": {},
    "version": 1
  }
}