{
  "contractName": "Wrapped1155Metadata",
  "abi": [
    {
      "inputs": [],
      "name": "factory",
      "outputs": [
        {
          "internalType": "contract Wrapped1155Factory",
          "name": "",
          "type": "address"
        }
      ],
      "stateMutability": "view",
      "type": "function"
    },
    {
      "inputs": [],
      "name": "multiToken",
      "outputs": [
        {
          "internalType": "contract IERC1155",
          "name": "",
          "type": "address"
        }
      ],
      "stateMutability": "view",
      "type": "function"
    },
    {
      "inputs": [],
      "name": "tokenId",
      "outputs": [
        {
          "internalType": "uint256",
          "name": "",
          "type": "uint256"
        }
      ],
      "stateMutability": "view",
      "type": "function"
    }
  ],
  "bytecode": "0x608060405234801561001057600080fd5b50610152806100206000396000f3fe608060405234801561001057600080fd5b50600436106100415760003560e01c806317d70f7c146100465780631904e5c914610064578063c45a015514610098575b600080fd5b61004e6100cc565b6040518082815260200191505060405180910390f35b61006c6100d2565b604051808273ffffffffffffffffffffffffffffffffffffffff16815260200191505060405180910390f35b6100a06100f8565b604051808273ffffffffffffffffffffffffffffffffffffffff16815260200191505060405180910390f35b60025481565b600160009054906101000a900473ffffffffffffffffffffffffffffffffffffffff1681565b60008054906101000a900473ffffffffffffffffffffffffffffffffffffffff168156fea2646970667358221220c549929206fa2acde33accf9780caf98f8ed70678b89a8b4941f3c78e2f000be64736f6c634300060c0033",
  "immutableReferences": {},
  "source": "    // SPDX-License-Identifier: LGPL-3.0-or-later\n\npragma solidity >=0.6.0;\n\nimport { Address } from \"@openzeppelin/contracts/utils/Address.sol\";\nimport { ERC20 } from \"@openzeppelin/contracts/token/ERC20/ERC20.sol\";\nimport { IERC1155 } from \"@openzeppelin/contracts/token/ERC1155/IERC1155.sol\";\nimport { ERC1155Receiver } from \"@openzeppelin/contracts/token/ERC1155/ERC1155Receiver.sol\";\n\ncontract Wrapped1155Metadata {\n    // workaround which also arranges first storage slots of Wrapped1155\n    Wrapped1155Factory public factory;\n    IERC1155 public multiToken;\n    uint256 public tokenId;\n    \n    modifier onlyFactory() {\n        require(msg.sender == address(factory), \"Wrapped1155: only factory allowed to perform operation\");\n        _;\n    }\n}\n\ncontract Wrapped1155 is Wrapped1155Metadata, ERC20 {\n\n    constructor() public ERC20(\"Wrapped ERC-1155 Implementation\", \"WMT*\") {}\n\n    function mint(address account, uint256 amount) external onlyFactory {\n        _mint(account, amount);\n    }\n    \n    function burn(address account, uint256 amount) external onlyFactory {\n        _burn(account, amount);\n    }\n}\n\ncontract Wrapped1155Factory is ERC1155Receiver {\n    using Address for address;\n\n    Wrapped1155 public erc20Implementation;\n\n    constructor() public {\n        erc20Implementation = new Wrapped1155();\n    }\n\n    function onERC1155Received(\n        address operator,\n        address /* from */,\n        uint256 id,\n        uint256 value,\n        bytes calldata data\n    )\n        external\n        override\n        returns (bytes4)\n    {\n        address recipient = operator;\n        // address recipient = data.length > 65 ? \n        //     abi.decode(data[65:], (address)) :\n        //     operator;\n\n        Wrapped1155 wrapped1155 = requireWrapped1155(IERC1155(msg.sender), id, data);\n        wrapped1155.mint(recipient, value);\n\n        return this.onERC1155Received.selector;\n    }\n\n    function onERC1155BatchReceived(\n        address operator,\n        address /* from */,\n        uint256[] calldata ids,\n        uint256[] calldata values,\n        bytes calldata data\n    )\n        external\n        override\n        returns (bytes4)\n    {\n        address recipient = operator;\n        // address recipient = (data.length > 65) ?\n        //     abi.decode(bytes(data[64:]), (address)) :\n        //     operator;\n\n        for (uint i = 0; i < ids.length; i++) {\n            requireWrapped1155(IERC1155(msg.sender), ids[i], data).mint(recipient, values[i]);\n        }\n\n        return this.onERC1155BatchReceived.selector;\n    }\n\n    function unwrap(\n        IERC1155 multiToken,\n        uint256 tokenId,\n        uint256 amount,\n        address recipient,\n        bytes calldata data\n    )\n        external\n    {\n        getWrapped1155(multiToken, tokenId, data).burn(msg.sender, amount);\n        multiToken.safeTransferFrom(address(this), recipient, tokenId, amount, data);\n    }\n\n    function batchUnwrap(\n        IERC1155 multiToken,\n        uint256[] calldata tokenIds,\n        uint256[] calldata amounts,\n        address recipient,\n        bytes calldata data\n    )\n        external\n    {\n        require(tokenIds.length == amounts.length, \"Wrapped1155Factory: mismatched input arrays\");\n        for (uint i = 0; i < tokenIds.length; i++) {\n            getWrapped1155(multiToken, tokenIds[i], data).burn(msg.sender, amounts[i]);\n        }\n        multiToken.safeBatchTransferFrom(address(this), recipient, tokenIds, amounts, data);\n    }\n\n    function getWrapped1155DeployBytecode(\n        IERC1155 multiToken, \n        uint256 tokenId, \n        bytes calldata data\n    )\n        public\n        view\n        returns (bytes memory)\n    {\n        bytes memory tokenName = bytes(data[:32]);\n        bytes memory tokenSymbol = bytes(data[32:64]);\n        bytes memory tokenDecimal = bytes(data[64:65]);\n        return abi.encodePacked(\n            // assign factory\n            hex\"73\",\n            this,\n            hex\"3d55\",\n            \n            // assign multiToken\n            hex\"73\",\n            multiToken,\n            hex\"600155\",\n            \n            // assign tokenId\n            hex\"7f\",\n            tokenId,\n            hex\"600255\",\n            \n            // assign name\n            hex\"7f\",\n            tokenName,\n            hex\"600655\",\n            \n            // assign symbol\n            hex\"7f\",\n            tokenSymbol,\n            hex\"600755\",\n            \n            // assign decimals\n            hex\"60\",\n            tokenDecimal, \n            hex\"600855\",\n\n            // push 44 (length of runtime)\n            hex\"60\", uint8(44),\n            // load free memory pointer\n            hex\"604051\",\n\n            // dup runtime length\n            hex\"81\",\n            // push offset in this calldata to runtime object,\n            hex\"60\", uint8(171),\n            // dup free memory pointer\n            hex\"82\"\n            \n            // codecopy runtime to memory and return\n            hex\"39f3\",\n\n            // greetz 0age for More-Minimal Proxy runtime bytecode\n            // @link [Minimal Proxy Contract](https://eips.ethereum.org/EIPS/eip-1167)\n            // @link [More-Minimal Proxy](https://medium.com/coinmonks/the-more-minimal-proxy-5756ae08ee48)\n            hex\"3d3d3d3d363d3d37363d73\",\n            address(erc20Implementation),\n            hex\"5af43d3d93803e602a57fd5bf3\"\n        );\n    }\n    \n    function getWrapped1155(\n        IERC1155 multiToken,\n        uint256 tokenId,\n        bytes calldata data\n    )\n        public\n        view\n        returns (Wrapped1155)\n    {\n        return Wrapped1155(address(uint256(keccak256(abi.encodePacked(\n            uint8(0xff),\n            this,\n            uint256(1155),\n            keccak256(getWrapped1155DeployBytecode(multiToken, tokenId, data))\n        )))));\n    }\n\n    event Wrapped1155Creation(\n        IERC1155 indexed multiToken,\n        uint256 indexed tokenId,\n        Wrapped1155 indexed wrappedToken\n    );\n\n    function requireWrapped1155(\n        IERC1155 multiToken,\n        uint256 tokenId,\n        bytes calldata data\n    )\n        public\n        returns (Wrapped1155)\n    {\n        bytes memory deployBytecode = getWrapped1155DeployBytecode(multiToken, tokenId, data);\n\n        address wrapped1155Address = address(uint256(keccak256(abi.encodePacked(\n            uint8(0xff),\n            this,\n            uint256(1155),\n            keccak256(deployBytecode)\n        ))));\n\n        if (!wrapped1155Address.isContract()) {\n            address addr;\n            assembly {\n              addr := create2(0, add(deployBytecode, 0x20), mload(deployBytecode), 1155)\n            }\n            require(wrapped1155Address == addr, \"Wrapped1155Factory: failed to deploy\");\n\n            emit Wrapped1155Creation(\n                multiToken,\n                tokenId,\n                Wrapped1155(wrapped1155Address)\n            );\n        }\n\n        return Wrapped1155(wrapped1155Address);\n    }\n}\n",
  "sourcePath": "/home/david/Develop/conditionaltokens/1155-to-20/contracts/Wrapped1155Factory.sol",
  "compiler": {
    "name": "solc",
    "version": "0.6.12+commit.27d51765.Emscripten.clang"
  },
  "schemaVersion": "3.3.3",
  "updatedAt": "2021-02-26T13:37:15.863Z",
  "devdoc": {
    "kind": "dev",
    "methods": {},
    "version": 1
  },
  "userdoc": {
    "kind": "user",
    "methods": {},
    "version": 1
  }
}